:100000000C9434000C9449000C9449000C94490061
:100010000C9449000C9449000C9449000C9449003C
:100020000C9449000C9449000C9449000C9449002C
:100030000C9449000C9449000C9449000C9449001C
:100040000C9449000C9449000C9449000C9449000C
:100050000C9449000C9449000C9449000C944900FC
:100060000C9449000C94490011241FBECFEFD8E036
:10007000DEBFCDBF11E0A0E0B1E0EEE4F5E002C0EC
:1000800005900D92A435B107D9F70E944B000C944E
:10009000A5020C940000CF93DF93CDB7DEB7C8550F
:1000A000D1090FB6F894DEBF0FBECDBF8FEF84B974
:1000B0008AB987E087B988E0E4E0F1E0DE011196D3
:1000C00001900D928A95E1F788E0ECE0F1E0DE0125
:1000D000199601900D928A95E1F7FE01719688E0DC
:1000E000DF011D928A95E9F788E0E4E1F1E0DE01A5
:1000F000599601900D928A95E1F788E1ECE1F1E0E3
:10010000DE01919601900D928A95E1F780E2E4E399
:10011000F1E0DE01D99601900D928A95E1F7E12C8C
:10012000F12C00E010E0C12CD12CA12CB12C98C0F6
:1001300084E088B90E94320281709078992324F477
:1001400001978E6F9F6F0196BC01892B89F141C089
:10015000E1E0F0E0EC0FFD1FE20FF31F80818BB9AF
:10016000E9E0F0E0EC0FFD1FE20FF31F90819095A6
:1001700095B9E7ECF0E03197F1F700C000002F5F90
:100180003F4F02C020E030E0283031050CF3309BB7
:1001900002C001E010E0309908C00130110529F4D7
:1001A000FFEFCF1ADF0A00E010E04F5F5F4F02C0A1
:1001B00040E050E04A3F51052CF32FEFA21AB20A5B
:1001C0003FE789EA93E0315080409040E1F700C07A
:1001D00000006130710509F043C031C0E1E0F0E09A
:1001E000EC0FFD1FE80FF91F20812BB9E9E1F0E0CA
:1001F000EC0FFD1FE80FF91F2081209525B9A7EC12
:10020000B0E01197F1F700C00000019602C080E055
:1002100090E08830910514F3319B03C0EE24E39401
:10022000F12C319909C0B1E0EB16F10429F4EFEF9C
:10023000CE1ADE0AE12CF12C4F5F5F4F02C040E086
:1002400050E0483C51051CF3FFEFAF1ABF0A2FE7FF
:1002500039EA83E0215030408040E1F700C00000DF
:100260009AE0A916B1040CF463CF18B8AFE1BEE46C
:100270001197F1F700C00000B7E0CB16D104A4F14C
:1002800018B888E088B940E050E02BC0E1E0F0E029
:10029000EC0FFD1FE80FF91F20812BB9FA01E80FC1
:1002A000F91F21E230E02C0F3D1FE20FF31F2081E8
:1002B000209525B9A7ECB0E01197F1F700C0000038
:1002C000019602C080E090E088309105FCF26F5FFB
:1002D0007F4F02C060E070E06E3171059CF34F5FAC
:1002E0005F4F40315105B4F3B7E0CB16D104ECF5C4
:1002F000EFE7F8E321E0E150F0402040E1F700C0F3
:10030000000018B880E188B940E050E02BC0E1E07F
:10031000F0E0EC0FFD1FE80FF91F20812BB9FA0167
:10032000E80FF91FA9E3B0E0AC0FBD1FEA0FFB1FF8
:100330002081209525B9E7ECF0E03197F1F700C076
:100340000000019602C080E090E088309105FCF248
:100350006F5F7F4F02C060E070E06E3171059CF30B
:100360004F5F5F4F48315105B4F340E050E020C08B
:10037000E1E0F0E0EC0FFD1FE80FF91F20812BB941
:10038000E1E1F0E0EC0FFD1FE80FF91F208120955F
:1003900025B9A7ECB0E01197F1F700C00000019675
:1003A00002C080E090E08830910514F34F5F5F4F0A
:1003B00044365105B4F318B8BFEFE0E7F2E0B150AE
:1003C000E040F040E1F700C00000A9CE8F929F927C
:1003D000AF92BF92CF92DF92EF92FF92CF93DF93D3
:1003E000EC01688179818A819B81611571058105A4
:1003F000910521F464E279ED8BE597E02DE133EF8F
:1004000041E050E00E94420249015A019B01AC01C7
:10041000A7EAB1E40E9461026B017C01ACEEB4EF8B
:10042000A50194010E946F02DC01CB018C0D9D1D82
:10043000AE1DBF1DB7FF03C00197A109B048888357
:100440009983AA83BB839F77DF91CF91FF90EF9031
:10045000DF90CF90BF90AF909F908F9008950E94B3
:10046000E601089580E091E00E94E6010895A0E091
:10047000B0E08093000190930101A0930201B0933A
:1004800003010895052E97FB1EF400940E94590263
:1004900057FD07D00E94740207FC03D04EF40C9461
:1004A000590250954095309521953F4F4F4F5F4FE2
:1004B000089590958095709561957F4F8F4F9F4FD0
:1004C00008950E949602A59F900DB49F900DA49F41
:1004D000800D911D11240895B7FF0C9461020E94B4
:1004E0006102821B930B0895A1E21A2EAA1BBB1B6B
:1004F000FD010DC0AA1FBB1FEE1FFF1FA217B307F0
:10050000E407F50720F0A21BB30BE40BF50B661F05
:10051000771F881F991F1A9469F7609570958095C9
:1005200090959B01AC01BD01CF010895A29FB00140
:10053000B39FC001A39F700D811D1124911DB29F17
:0E054000700D811D1124911D0895F894FFCFB8
:10054E00010000000102040810204080000000009D
:10055E007E7E7E00007E7E7E00000000001C20104D
:10056E0010201C000000003C00000000003C0804AD
:10057E0004380000007E404040404000003C4242B3
:10058E0042423C000046494949310000007E4A4A39
:04059E004A420000CD
:00000001FF
